:100000000C9433000C9400000C9400000C9400003D
:100010000C9400000C9400000C9400000C94000060
:100020000C9400000C9400000C9400000C94000050
:100030000C9400000C9400000C9400000C94000040
:100040000C9400000C9400000C9400000C94000030
:100050000C940000C0F9A4B0999282F880900A0034
:10006000600154000000F894EE27ECBBF1E0FBBF08
:10007000EBBFE5BF8DE0A2E0BB27ED938A95E9F7E2
:1000800080E094E0A0E6ED930197E9F7EEE5F0E07B
:1000900085919591009761F0A591B5910590159086
:1000A000BF01F00105900D920197E1F7FB01F0CF40
:1000B000EFE5EDBFE4E0EEBFC0E6D1E00C946000F8
:1000C000EFEFE1BBE4BBEABBE9EAEBBB0AD0E6EA4F
:1000D000EBBB07D0EAE9EBBB04D0EAE6EBBB01D00F
:1000E000FFCFE0916301E5BBE091600123D0E2E046
:1000F000F0E02F01002440145004DCF0A0E6B1E051
:10010000A40DB51DEC91E5BBE9E0F0E03F01002452
:100110006014700454F0A0E6B1E0A60DB71DEC9198
:1001200009D0F30131973F01F2CFF20131972F014E
:10013000E1CF0895E2BBA4E6B0E000C0109639F02C
:10014000A89580ED97E00197F1F71197C9F7089509
:00000001FF
